:020000040800F2
:100000007007002011120008FB010008FD01000824
:1000100001020008050200080902000800000000B3
:100020000000000000000000000000000D020008B9
:100030000F0200080000000011020008130200086F
:100040002B1200082B1200082B1200082B1200089C
:100050002B1200082B120008EB0E00082B120008D0
:100060002B1200082B1200082B1200082B1200087C
:100070002B1200082B1200082B1200082B1200086C
:100080002B1200082B1200082B1200082B1200085C
:100090002B1200082B1200082B120008490F000831
:1000A0002B1200082B1200082B1200082B1200083C
:1000B0002B120008010C00082B1200082B1200085C
:1000C0002B1200082B1200082B1200082B1200081C
:1000D0002B120008871100082B1200082B120008B1
:1000E000A50F00082B1200082B1200082B12000885
:1000F0002B1200082B1200082B1200082B120008EC
:100100002B1200082B1200082B1200082B120008DB
:100110002B1200082B1200082B1200082B120008CB
:100120002B1200082B1200082B1200082B120008BB
:1001300000F002F800F03AF80AA090E8000C8244BF
:100140008344AAF10107DA4501D100F02FF8AFF29C
:10015000090EBAE80F0013F0010F18BFFB1A43F0A5
:1001600001031847782C0000982C0000103A24BF97
:1001700078C878C1FAD8520724BF30C830C144BF0C
:1001800004680C607047000000230024002500264E
:10019000103A28BF78C1FBD8520728BF30C148BFEA
:1001A0000B6070471FB51FBD10B510BD02F0E3FD19
:1001B0001146FFF7F7FF00F008F802F001FE03B464
:1001C000FFF7F2FF03BC00F083FF00F017FF00F021
:1001D00093FD00F021FE4FF4A06001F0BDFD00F0A2
:1001E00009F941F61F4142F20F7000F0DDFC03E017
:1001F0004FF4FA7000F03FFFFAE7704700BFFEE7E8
:1002000000BFFEE700BFFEE700BFFEE77047704794
:10021000704770470CB50020019000906C48006852
:1002200040F480306A49086000BF6948006800F403
:10023000003000900198401C0190009818B9019876
:10024000B0F5A06FF1D16248006800F4003010B141
:100250000120009001E0002000900098012843D187
:100260005C48006840F010005A4908600846006881
:1002700020F0030008600846006840F002000860B3
:1002800053484068524948600846406848600846FC
:10029000406840F4806048600846406820F47C1064
:1002A00048600846406840F4E81048600846006826
:1002B00040F08070086000BF4548006800F00070A2
:1002C0000028F9D04248406820F0030040494860C7
:1002D0000846406840F00200486000BF3C48406863
:1002E00000F00C000828F9D10CBD10B5FFF792FF03
:1002F00010BD10B53648006840F001003449086070
:10030000084640683449084031494860084600685A
:10031000324908402E4908600846006820F48020D1
:1003200008600846406820F4FE0048604FF41F0053
:100330008860FFF7DAFF4FF000602949086010BDC0
:1003400010B5002100200022214B5B6803F00C0156
:1003500021B1042906D0082928D107E0214B224CDD
:10036000236027E01F4B204C236023E0184B5B6881
:1003700003F47010164B5B6803F48032022303EB26
:10038000904022B9194B4343174C23600DE0104BAA
:100390005B6803F4003323B1144B4343124C2360D6
:1003A00003E0104B4343104C236003E00D4B0E4C15
:1003B000236000BF00BF064B5B68C3F303130C4C04
:1003C000E15C094B1B68CB40074C236010BD00006B
:1003D00000100240002002400000FFF8FFFFF6FE80
:1003E00008ED00E000127A000000002000093D0046
:1003F0000400002008B50121082001F045FA4FF45F
:100400008070ADF8000010208DF8030003208DF8F7
:1004100002006946FE4800F07BFF4FF48071FC4803
:1004200001F025F80420ADF800006946F84800F016
:100430006FFF0421F64801F01AF80120ADF8000022
:100440006946F34800F064FF0121F14801F00FF81C
:100450000220ADF800006946ED4800F059FF022186
:10046000EB4801F004F80820ADF800006946E848C0
:1004700000F04EFF0821E64800F0F9FF1020ADF82B
:1004800000006946E24800F043FF1021E04800F018
:10049000EEFF2020ADF800006946DD4800F038FF8F
:1004A0002021DB4800F0E3FF4020ADF80000694662
:1004B000D74800F02DFF4021D54800F0D8FF80201C
:1004C000ADF800006946D24800F022FF8021D048F4
:1004D00000F0CDFF4FF40070ADF800006946CC4845
:1004E00000F016FF4FF40071C94800F0C0FF4FF450
:1004F0008060ADF800006946C54800F009FF4FF480
:100500008061C34800F0B3FF4FF40060ADF8000015
:100510006946BF4800F0FCFE4FF40061BC4800F0A3
:10052000A6FF4FF48050ADF800006946B84800F0CF
:10053000EFFE4FF48051B64800F099FF4FF40050A1
:10054000ADF800006946B24800F0E2FE4FF40051F9
:10055000AF4800F08CFF4FF48040ADF800006946D2
:10056000AB4800F0D5FE4FF48041A94800F07FFF72
:100570004FF40040ADF800006946A54800F0C8FE01
:100580004FF40041A24800F072FF08BD10B50446C8
:100590007CB901219E4800F06AFF02219C4800F0CE
:1005A00066FF04219A4800F062FF0821984800F095
:1005B0005EFF012C0FD10121954800F056FF02216A
:1005C000934800F054FF0421914800F050FF0821A7
:1005D0008F4800F04CFF022C0FD101218C4800F015
:1005E00046FF02218A4800F040FF0421884800F0BD
:1005F0003EFF0821864800F03AFF032C0FD101216D
:10060000834800F032FF0221814800F02EFF0421D0
:100610007F4800F02CFF08217D4800F028FF042CC3
:100620000FD101217A4800F022FF0221784800F022
:100630001EFF0421764800F018FF0821744800F0DE
:1006400016FF052C0FD10121714800F00EFF022189
:100650006F4800F00CFF04216D4800F006FF0821F0
:100660006B4800F004FF062C0FD10121684800F010
:10067000FEFE0221664800F0F8FE0421644800F006
:10068000F4FE0821624800F0F2FE072C0FD1012190
:100690005F4800F0EAFE02215D4800F0E6FE04211A
:1006A0005B4800F0E2FE0821594800F0E0FE082C0B
:1006B0000FD10121564800F0DAFE0221544800F023
:1006C000D6FE0421524800F0D2FE0821504800F026
:1006D000CCFE092C0FD101214D4800F0C6FE0221AD
:1006E0004B4800F0C4FE0421494800F0C0FE082138
:1006F000474800F0BAFE10BD10B504467CB9102181
:10070000434800F0B4FE2021414800F0B0FE4021F3
:100710003F4800F0ACFE80213D4800F0A8FE012CCF
:100720000FD110213A4800F0A0FE2021384800F0F7
:100730009EFE4021364800F09AFE8021344800F0A9
:1007400096FE022C0FD11021314800F090FE20219E
:100750002F4800F08AFE40212D4800F088FE8021BD
:100760002B4800F084FE032C0FD11021284800F004
:100770007CFE2021264800F078FE4021244800F02D
:1007800076FE8021224800F072FE042C0FD1102149
:100790001F4800F06CFE20211D4800F068FE40213B
:1007A0001B4800F062FE8021194800F060FE052C15
:1007B0000FD11021164800F058FE2021144800F0F7
:1007C00056FE4021124800F050FE8021104800F0F3
:1007D0004EFE062C0FD110210D4800F048FE2021BE
:1007E0000B4800F042FE4021094800F03EFE802107
:1007F000074800F03CFE072C12D11021044800F0FD
:1008000034FE2021024800F030FE4021004801E083
:10081000000C014000F029FE8021E24800F027FE94
:10082000082C0FD11021DF4800F021FE2021DD48E7
:1008300000F01DFE4021DB4800F019FE8021D94860
:1008400000F013FE092C0FD11021D64800F00DFE48
:100850002021D44800F00BFE4021D24800F007FED2
:100860008021D04800F001FE10BD10B504469CB9AF
:100870004FF48071CB4800F0FAFD4FF40071C94885
:1008800000F0F5FD4FF48061C64800F0F0FD4FF434
:100890000061C44800F0EBFD012C0FD12102C148DA
:1008A00000F0E3FD6102BF4800F0E1FDA102BD4898
:1008B00000F0DDFDE102BB4800F0D9FD022C0FD1B4
:1008C000E101B84800F0D3FD2102B64800F0CDFDAB
:1008D0006102B44800F0CBFDA102B24800F0C7FDB0
:1008E000032C13D14FF48071AE4800F0BEFD4FF4DD
:1008F0000071AC4800F0B9FD4FF48061A94800F0E8
:10090000B6FD4FF40061A74800F0B1FD042C0FD1F3
:10091000A101A44800F0ABFDE101A24800F0A7FD51
:100920002102A04800F0A1FD61029E4800F09FFD59
:10093000052C13D14FF480719A4800F096FD4FF4C6
:100940000071984800F093FD4FF48061954800F0E5
:100950008CFD4FF40061934800F089FD062C13D103
:100960004FF480718F4800F082FD4FF400718D4884
:1009700000F07BFD4FF480618A4800F076FD4FF473
:100980000061884800F073FD072C13D14FF480718B
:10099000844800F06AFD4FF40071824800F065FD64
:1009A0004FF480617F4800F060FD4FF400617D48A6
:1009B00000F05DFD082C0FD161017A4800F057FD71
:1009C000A101784800F053FDE101764800F04FFDA9
:1009D0002102744800F049FD092C13D14FF48071B5
:1009E000704800F042FD4FF400716E4800F03FFD8A
:1009F0004FF480616B4800F03AFD4FF400616948A4
:100A000000F033FD10BD10B504469CB94FF4805181
:100A1000644800F02CFD4FF40051624800F027FDBF
:100A20004FF480415F4800F022FD4FF400415D48E3
:100A300000F01DFD012C0FD121035A4800F015FDD7
:100A40006103584800F013FDA103564800F00FFD64
:100A5000E103544800F00BFD022C0FD1E102514894
:100A600000F005FD21034F4800F0FFFC61034D48F5
:100A700000F0FDFCA1034B4800F0F9FC032C13D15E
:100A80004FF48051474800F0F0FC4FF400514548C6
:100A900000F0EBFC4FF48041424800F0E8FC4FF4DA
:100AA0000041404800F0E3FC042C0FD1A1023D4876
:100AB00000F0DDFCE1023B4800F0D9FC210339489D
:100AC00000F0D3FC6103374800F0D1FC052C13D1B2
:100AD0004FF48051334800F0C8FC4FF400513148C6
:100AE00000F0C5FC4FF480412E4800F0BEFC4FF4EE
:100AF00000412C4800F0BBFC062C13D14FF4805170
:100B0000284800F0B4FC4FF40051264800F0ADFC3A
:100B10004FF48041234800F0A8FC4FF400412148E5
:100B200000F0A5FC072C13D14FF480511D4800F0B4
:100B30009CFC4FF400511B4800F097FC4FF480419F
:100B4000184800F092FC4FF40041164800F08FFC6A
:100B5000082C0FD16102134800F089FCA102114852
:100B600000F085FCE1020F4800F081FC21030D48F4
:100B700000F07BFC092C13D14FF48051094800F0A0
:100B800074FC4FF40051074800F071FC4FF48041B1
:100B9000044800F06CFC4FF40041024800F065FC92
:100BA00010BD0000000C01407FB505460C46012138
:100BB000022000F076FEADF80850ADF804400020A9
:100BC000ADF80A00ADF8060001A9464801F006FAA2
:100BD00001221146434801F078FD1D208DF80000E8
:100BE00002208DF801008DF8020001208DF803002D
:100BF000684601F0B6F801213A4801F04BFD7FBD8F
:100C000010B50121374802F00EF8002869D0012103
:100C1000344802F019F834480068401C3249086032
:100C2000084600683C2806D1002008602F4800686C
:100C3000401C2E4908602D4800683C2807D1002040
:100C40002A4908602A480068401C29490860284849
:100C50000068182802D10020254908602348006850
:100C6000C0EB00102049096801EB80003C2190FB9B
:100C7000F1F201FB120020B901211E4800F0F5FB42
:100C800003E001211B4800F0F2FB184800680A212C
:100C900090FBF1F201FB12042046FFF777FC1348AA
:100CA00000680A2190FBF1F090FBF1F201FB1204C5
:100CB0002046FFF721FD0E4800680A2190FBF1F263
:100CC00001FB12042046FFF7D0FD094800680A2105
:100CD00090FBF1F090FBF1F201FB12042046FFF7CC
:100CE00092FE10BD000400401C00002018000020EF
:100CF000140000200010014008B50121142000F06C
:100D0000C3FD0121404800F0D4FB4FF40040ADF892
:100D1000000048208DF8030069463C4800F0F8FACE
:100D20002020ADF8000048208DF8030069463848BF
:100D300000F0EEFA0120ADF8000028208DF8030045
:100D40006946324800F0E4FA0120ADF800001020B6
:100D50008DF8030003208DF8020069462C4800F04E
:100D6000D7FA01212A4800F082FB08BD10B50446DD
:100D700014B10120274908702648007868B3202163
:100D8000234800F058FB58B14FF400411F4800F0D1
:100D900052FB28B101211D4800F04DFB01281CD158
:100DA0000A2000F068F900201A490870202118482C
:100DB00000F041FB08B9012010BD4FF40041134879
:100DC00000F039FB08B90220F6E701210F4800F0D6
:100DD00032FB012815D10320EEE720210C4800F05A
:100DE0002AFB01280DD1C103084800F024FB01288B
:100DF00007D10121054800F01EFB10B9012005496B
:100E000008700020D8E70000000230000008014010
:100E100000100140200000200EB50121084600F01E
:100E200033FDFFF769FF0521022000F087FB20203A
:100E3000019000208DF808000C208DF80900012099
:100E40008DF80A0001A801F011FF0F21002000F029
:100E500075FB4FF40040019000208DF808000C2035
:100E60008DF8090001208DF80A0001A801F0FEFEAE
:100E70000021084600F062FB0120019000208DF85F
:100E8000080008208DF8090001208DF80A0001A84B
:100E900001F0ECFE06208DF8000002208DF8010024
:100EA00001208DF802008DF80300684600F059FF1C
:100EB00017208DF8000002208DF8010001208DF828
:100EC00002008DF80300684600F04BFF28208DF8E3
:100ED000000002208DF8010001208DF802008DF83D
:100EE0000300684600F03DFF0EBD10B50A2000F07B
:100EF000C2F801213C4800F09EFA012820D13B486D
:100F00000068401C39490860084600683C2801D147
:100F100000200860354800680A2190FBF1F201FBCF
:100F200012042046FFF732FB304800680A2190FB8C
:100F3000F1F090FBF1F201FB12042046FFF7DCFB1D
:100F4000012001F00AFF10BD10B50A2000F093F84F
:100F50002021274800F06FFA00BB26480068401C9B
:100F60002449086008460068182801D1002008605C
:100F7000204800680A2190FBF1F201FB1204204690
:100F8000FFF773FC1B4800680A2190FBF1F090FB0F
:100F9000F1F201FB12042046FFF735FD202001F09D
:100FA000DCFE10BD10B50A2000F065F84FF40041DA
:100FB0000D4800F040FA90B90020FFF7E7FA002052
:100FC000FFF79AFB0020FFF750FC0020FFF71BFD06
:100FD00000200949086005490860064908604FF487
:100FE000004001F0BAFE10BD0008014018000020CA
:100FF00000100140140000201C00002010B56FF00C
:10100000040000F0F8FE2E4800682E49B0FBF1F015
:101010002D4908700846007800EB4001C1EBC01074
:101020004FF6FF7101EAC0002849088010BD014653
:10103000254A12784A434FF0E0235A6100229A6110
:101040001A46126942F001021A6100BF4FF0E02215
:10105000106900F001021AB100F48032002AF5D0C4
:101060004FF0E022126922F001024FF0E0231A61F2
:1010700000229A6170470146144A12884A434FF091
:10108000E0235A6100229A611A46126942F0010275
:101090001A6100BF4FF0E022106900F001021AB19E
:1010A00000F48032002AF5D04FF0E022126922F0DD
:1010B00001024FF0E0231A6100229A61704700009C
:1010C0000000002000127A002200002024000020EE
:1010D000014600BF704700BF494A128802F0400233
:1010E000002AF9D0C2B2464B1B1D1A80704710B5BA
:1010F00086B00446012144F2040000F0C5FB4FF421
:101100000070ADF8140003208DF8160018208DF83B
:10111000170005A93B4800F0FBF84FF48060ADF8DC
:10112000140004208DF8170005A9364800F0F0F8E7
:1011300025208DF8000003208DF801008DF80200B5
:1011400001208DF80300684600F00BFE019400209A
:10115000ADF80800ADF80A00ADF80C00ADF81000CD
:101160000C20ADF80E0001A9254800F034FC012246
:1011700040F22551224800F0C6FC0121204800F031
:10118000B6FC06B010BD10B540F225511C4800F069
:101190009FFD10B31A4800F01BFDC4B21A48008826
:1011A00000F40040C8B91848008800F4804060B1DD
:1011B0000A2C03D000201449088020E0124800883F
:1011C00040F400401049088019E00D2C06D10E486B
:1011D000008840F480400C49088010E00A480088EC
:1011E000C0F30D0009490C5407480088401C06490B
:1011F000088008460088C72801DD0020088010BD4F
:1012000000380140000801402C000020440000206C
:101210000948804709480047FEE7FEE7FEE7FEE78A
:10122000FEE7FEE7FEE7FEE7FEE7FEE704480549C6
:10123000054A064B70470000F30200083101000820
:101240007001002070070020700300207003002050
:1012500010B50446CC48844208D10121042000F096
:101260002DFB0021042000F029FB46E0C748844202
:1012700008D10121082000F021FB0021082000F006
:101280001DFB3AE0C248844208D10121102000F041
:1012900015FB0021102000F011FB2EE0BD48844218
:1012A00008D10121202000F009FB0021202000F0BE
:1012B00005FB22E0B848844208D10121402000F01B
:1012C000FDFA0021402000F0F9FA16E0B34884420C
:1012D00008D10121802000F0F1FA0021802000F0E7
:1012E000EDFA0AE0AE48844207D10121801500F0F2
:1012F000E5FA0021A01500F0E1FA10BD10B50121BA
:10130000084600F0DBFA0021012000F0D7FA10BDFA
:101310002DE9F0410246002500260020002300248C
:10132000002791F803C00CF00F0591F803C00CF0F2
:10133000100CBCF1000F03D091F802C04CEA050577
:1013400091F800C0BCF1000F31D0146800202BE0F0
:101350004FF0010C0CFA00F3B1F800C00CEA0306E0
:101360009E4220D183004FF00F0C0CFA03F7BC43D0
:1013700005FA03FC4CEA040491F803C0BCF1280F01
:1013800006D14FF0010C0CFA00FCC2F814C00AE0C0
:1013900091F803C0BCF1480F05D14FF0010C0CFAD5
:1013A00000FCC2F810C0401C0828D1D31460B1F86A
:1013B00000C0BCF1FF0F34DD546800202EE000F1C6
:1013C000080C4FF0010808FA0CF3B1F800C00CEA61
:1013D00003069E4221D183004FF00F0C0CFA03F755
:1013E000BC4305FA03FC4CEA040491F803C0BCF1C9
:1013F000280F05D100F1080C08FA0CF8C2F8148087
:1014000091F803C0BCF1480F07D100F1080C4FF070
:10141000010808FA0CF8C2F81080401C0828CED346
:101420005460BDE8F0814FF6FF71018002218170A8
:101430000421C17070470246002093680B400BB135
:10144000012000E0002070470146886880B27047A4
:1014500002460020D3680B400BB1012000E00020C1
:1014600070470146C86880B27047016170474161AA
:1014700070470AB1016100E041617047C160704787
:101480004FF480320A43826181618261826982699C
:10149000704702460020434B18684FF6807318408F
:1014A00040EA021008433F4B186070473E49C8614C
:1014B0007047F0B50A46002300240021002500F003
:1014C0000046B6F1004F02D1364EF16901E0354ECB
:1014D0007168C0F3034583B200F44016B6F5401FAF
:1014E00008D121F070612F4E766826F070662D4F7E
:1014F0007E6012E000F48016B6F5801F06D1032648
:1015000006FA05F4A14341F0706106E0460D36018C
:1015100003FA06F6B14341F0706122B1460D36017F
:1015200003FA06F6314300F00046B6F1004F02D14F
:101530001C4EF16101E01B4E7160F0BD30B5002220
:101540008B071C0F0F2303FA04F2164B08338C1081
:1015500053F824309343134C08348D1044F825304D
:1015600023468C1053F824308C07240F00FA04F41F
:1015700023430C4C08348D1044F8253030BD0A4903
:10158000DC3108607047000000080140000C014099
:10159000001001400014014000180140001C0140EF
:1015A000002001400000014000002042DF480068A8
:1015B00040F00100DD49086008464068DC49084009
:1015C000DA49486008460068DA490840D7490860A7
:1015D0000846006820F4802008600846406820F42F
:1015E000FE0048604FF41F0088607047CF490968CB
:1015F00021F48031CD4A11601146096821F480211F
:101600001160B0F5803F03D0B0F5802F0ED106E019
:10161000C649096841F48031C44A116007E0C349F2
:10162000096841F4A021C14A116000E000BF00BF79
:10163000704710B501460022002300204A11012AFC
:1016400002D1BA4C236806E0022A02D1B74C236AC1
:1016500001E0B64C636A01F01F02012494401C4073
:101660000CB1012000E0002010BD38B50020009032
:101670000024002500BF3120FFF7DBFF054600985E
:10168000401C00900098B0F5A06F01D0002DF2D062
:101690003120FFF7CEFF08B1012400E000242046EE
:1016A00038BD01460020A14A106820F0F80040EA49
:1016B000C10010607047A0490860704702460020D2
:1016C0009A4B586820F47C1042EA01031843974B68
:1016D0005860704798490866704701460020934A51
:1016E000506820F003000843506070478F484068FE
:1016F00000F00C007047014600208C4A506820F032
:10170000F00008435060704701460020874A506847
:1017100020F4E06008435060704701460020834A8F
:10172000506820F4605040EAC1005060704729B111
:101730007E4A527A02437D4B5A7204E07B4A527AC7
:1017400082437A4B5A7270477B49D83108607047A0
:1017500001460020754A506820F44040084350601C
:1017600070470021714A20321170704A82F82010AF
:10177000012802D004280AD104E001216B4A20325A
:10178000117005E00521694A2032117000E000BFA8
:1017900000BF70476949086070476449096A01439E
:1017A000624A11627047654944390860704730B534
:1017B00000210022002400235C4D6D6805F00C011F
:1017C00021B1042905D0082923D105E05C4D05602D
:1017D00022E05B4D05601FE0544D6D6805F470120A
:1017E000524D6D6805F48034022505EB92421CB918
:1017F000544D554305600BE04C4D6D6805F40035C4
:101800001DB1504D5543056002E04D4D55430560F7
:1018100002E04B4D056000BF00BF444D6D6805F010
:10182000F0010909484D6B5C0568DD4045603F4D9E
:101830006D6805F4E061090A434D6B5C4568DD4065
:1018400085603A4D6D6805F46051C90A3E4D6B5C88
:101850004568DD40C560354D6D6805F44041890B34
:101860003A4D6B5CC568B5FBF3F5056130BD29B138
:101870002E4A526902432D4B5A6104E02B4A5269A9
:1018800082432A4B5A61704729B1284A9269024320
:10189000264B9A6104E0254A92698243234B9A6160
:1018A000704729B1214AD2690243204BDA6104E032
:1018B0001E4AD26982431D4BDA61704729B11B4A27
:1018C000D2680243194BDA6004E0184AD2688243B6
:1018D000164BDA60704729B1144A12690243134B60
:1018E0001A6104E0114A12698243104B1A61704771
:1018F00012494039086070470F49C86470470B4966
:10190000C87170470948406A40F0807007494862D2
:10191000704701460020054A92680A400AB101203A
:1019200000E00020704701498872704700100240B3
:101930000000FFF8FFFFF6FE000042428004424232
:1019400000127A0000093D002E0000203E00002019
:1019500010B50446FB48844209D101218803FFF7F2
:10196000ADFF00214FF48040FFF7A8FF32E0F648BA
:10197000844209D101214804FFF7ADFF00214FF453
:101980000030FFF7A8FF25E0F048844209D101218B
:101990008804FFF7A0FF00214FF48020FFF79BFF92
:1019A00018E0EB48844209D10121C804FFF793FFF6
:1019B00000214FF40020FFF78EFF0BE0E548844242
:1019C00008D101210805FFF786FF00214FF48010A0
:1019D000FFF781FF10BD2DE9F04786B005460E46A2
:1019E0000024A24600BFA1460027B08900B100BF75
:1019F0002F462C8A4CF6FF700440F08804432C825A
:101A0000AC894EF6F3100440B088318908437189DF
:101A100008430443AC81AC8A4FF6FF400440B089D0
:101A20000443AC8201A8FFF7C2FEC648874202D138
:101A3000DDF810A001E0DDF80CA0A88900F400405A
:101A400040B10AEBCA0000EB0A1031684900B0FB54
:101A5000F1F807E00AEBCA0000EB0A1031688900D0
:101A6000B0FBF1F86420B8FBF0F004012009642118
:101A700001FB1089A88900F4004040B1322000EB3E
:101A8000C900B0FBF1F000F00700044308E0322089
:101A900000EB09106421B0FBF1F000F00F000443EB
:101AA0002C8106B0BDE8F0874FF41651016000218B
:101AB0008180C18001810C21418100218181704799
:101AC00010B502460020108A4FF2FF0318400B8821
:101AD0004C8823438C882343CC88234318431082AB
:101AE00010BD0021018041808180C180704721B1FB
:101AF000828942F40052828104E082894DF6FF73AC
:101B00001A4082817047F0B5034600240026002564
:101B1000002040F66A17B94200D100BF1846C1F351
:101B2000421401F01F06012707FA06F5012C01D126
:101B30000C3004E0022C01D1103000E014301AB156
:101B400007682F43076002E00768AF430760F0BDF6
:101B50001AB1838A0B43838202E0838A8B43838298
:101B60007047028A4FF6F0731A400282028A0A43D3
:101B70000282704782894FF2FF731A408281828904
:101B80000A438281704721B1828942F00202828138
:101B900004E082894FF6FD731A4082817047028A01
:101BA0004FF6DF731A400282028A0A4302827047AC
:101BB00021B1028A42F48042028204E0028A4BF69A
:101BC000FF731A4002827047C1F308028280704797
:101BD00001468888C0F308007047818941F00101FF
:101BE00081817047028BD2B20283028B42EA0122CA
:101BF00002837047028B02F47F420283028B0A4306
:101C00000283704721B1828A42F02002828204E07E
:101C1000828A4FF6DF731A408282704721B1828A2E
:101C200042F01002828204E0828A4FF6EF731A407B
:101C30008282704721B1828A42F00802828204E0E7
:101C4000828A4FF6F7731A408282704721B18289E7
:101C500042F40042828103E08289C2F30E02828153
:101C6000704721B1828A42F40062828204E0828A53
:101C70004FF2FF731A4082827047828A4FF6FB73DD
:101C80001A408282828A0A438282704721B1828A04
:101C900042F00202828204E0828A4FF6FD731A400B
:101CA0008282704702460020B1F5007F00D100BF5C
:101CB00013880B400BB1012000E00020704701F4B5
:101CC0000072B2F5007F00D100BFCA4302807047A6
:101CD00070B50246002400230025002040F66A1655
:101CE000B14200D100BFC1F3421501F01F0301262C
:101CF00006FA03F3012D02D19689334006E0022D46
:101D000002D1168A334001E0968A33400C12012634
:101D100006FA04F41688344013B10CB1012000E037
:101D2000002070BD10B50022002340F66A14A142C5
:101D300000D100BF0A1201249440A3B2DC43048006
:101D400010BD000000380140004400400048004041
:101D5000004C00400050004031490143314A1160BD
:101D6000704770B5002100230F22C47804B32D4CB6
:101D7000246804F4E064C4F5E064210AC1F10403BA
:101D8000CA40447804FA03F18478144021430901DD
:101D9000254C0678A155047804F01F050124AC40B9
:101DA00005786D11AD0005F1E025C5F8004109E0A9
:101DB000047804F01F050124AC401C4D0678761110
:101DC00045F8264070BD1A4A0A400243154B1B1FB6
:101DD0001A60704739B1134A121D12680243114B41
:101DE0001B1D1A6006E00F4A121D126882430D4B3C
:101DF0001B1D1A607047042808D14FF0E0210969C3
:101E000041F004014FF0E022116107E04FF0E021C2
:101E1000096921F004014FF0E022116170470000D0
:101E20000000FA050CED00E000E400E080E100E0D5
:101E300080FFFF1F10B50446FE48844208D10121EF
:101E4000C014FFF73BFD0021E014FFF737FDC4E0AD
:101E5000B4F1804F08D101210846FFF73CFD002175
:101E60000120FFF738FDB8E0F348844208D1012192
:101E70000220FFF730FD00210220FFF72CFDACE02F
:101E8000EE48844208D101210420FFF724FD0021FF
:101E90000420FFF720FDA0E0E948844208D1012199
:101EA0000820FFF718FD00210820FFF714FD94E03B
:101EB000E448844208D101211020FFF70CFD0021E5
:101EC0001020FFF708FD88E0DF48844208D1012197
:101ED0002020FFF700FD00212020FFF7FCFC7CE024
:101EE000DA48844208D101214014FFF7E7FC0021C1
:101EF0006014FFF7E3FC70E0D548844209D101216A
:101F0000C804FFF7DBFC00214FF40020FFF7D6FCEC
:101F100063E0D048844209D101210805FFF7CEFCD7
:101F200000214FF48010FFF7C9FC56E0CA488442F4
:101F300009D101214805FFF7C1FC00214FF4001031
:101F4000FFF7BCFC49E0C548844208D1012140208C
:101F5000FFF7C1FC00214020FFF7BDFC3DE0C04879
:101F6000844208D101218020FFF7B5FC00218020A8
:101F7000FFF7B1FC31E0BB48844208D10121801554
:101F8000FFF7A9FC0021A015FFF7A5FC25E0B64846
:101F9000844209D101210804FFF790FC00214FF48D
:101FA0008030FFF78BFC18E0B048844209D1012152
:101FB0004804FFF783FC00214FF40030FFF77EFC5C
:101FC0000BE0AB48844208D101218804FFF776FC7E
:101FD00000214FF48020FFF771FC10BD0022028821
:101FE000944B98420ED0994B98420BD0B0F1804F51
:101FF00008D0914B984205D0904B984202D0904B1C
:10200000984204D14FF68F731A404B881A438D4B78
:10201000984207D08C4B984204D04FF6FF431A40A9
:10202000CB881A4302808B8883850B880385814B7C
:1020300098420BD0854B984208D08B4B984205D0E4
:102040008A4B984202D08A4B984201D10B7A038680
:1020500001238382704770B5002400220023058C81
:102060004FF6FE7635400584028C8388048B4FF64C
:102070008F752C40B51E2C400D882C43751E2A40B0
:102080000D892A434D882A436A4DA8420BD06F4DD3
:10209000A84208D0744DA84205D0744DA84202D081
:1020A000734DA84213D14FF6F7752A404D892A4344
:1020B0004FF6FB752A408D882A434FF6FF652B406B
:1020C0004FF6FF552B408D892B43CD892B438380C1
:1020D0000483CD888586028470BD70B500240022FB
:1020E0000023058C4FF6EF7635400584028C8388FB
:1020F000048B48F6FF752C404FF6FF452C400D88A9
:102100004FF6FF7606EA05252C434FF6DF752A4089
:102110000D8906EA05152A434D8806EA05152A4366
:10212000444DA84202D0494DA8421DD14FF67F75BB
:102130002A404D894FF6FF7606EA05152A434FF6E9
:10214000BF752A408D8806EA05152A434FF6FF35EC
:102150002B404FF2FF752B408D8906EA85052B43F6
:10216000CD8906EA85052B4383800483CD880587C6
:10217000028470BD70B5002400220023058C4FF648
:10218000FF6635400584028C8388848B4FF68F75FB
:102190002C404FF6FC752C400D882C434FF6FF5514
:1021A0002A400D894FF6FF7606EA05252A434D8819
:1021B00006EA05252A431F4DA84202D0234DA84216
:1021C0001DD14FF2FF752A404D894FF6FF7606EA82
:1021D00005252A434FF6FF352A408D8806EA052556
:1021E0002A434EF6FF752B404DF6FF752B408D8927
:1021F00006EA05152B43CD8906EA05152B43838096
:102200008483CD888587028470BD70B50022002349
:102210000024058C4EF6FF7635400584038C8488B7
:10222000828B48F6FF752A404FF6FF452A400D88FD
:1022300020E00000002C01400004004000080040A5
:10224000000C004000100040001400400034014029
:10225000004C014000500140005401400018004073
:10226000001C0040002000400040014000440140AC
:10227000004801404FF6FF7606EA05252A434DF651
:10228000FF752B400D8906EA05352B434D8806EA7C
:1022900005352B43FA4DA84202D0FA4DA84208D189
:1022A0004BF6FF752C408D894FF6FF7606EA8515B3
:1022B0002C4384808283CD88A0F84050038470BD75
:1022C000828B4FF2FF331A408283828B4FF6FF736B
:1022D00003EA01231A4382837047F0B50C46154682
:1022E000002200210026078C4EF6FF7C07EA0C072F
:1022F0000784828B018C4FF6FF7707EA043640F69D
:10230000FF473A404FF6FF7707EA05273A434FF673
:10231000FF7707EA03373A43D94FB8420ED0D94F77
:10232000B8420BD0B0F1804F08D0D74FB84205D09B
:10233000D64FB84202D0D64FB84206D14DF6FF77FD
:10234000394046F48057394305E047F6FF57394096
:1023500044F48057394382830184F0BD828B4FF669
:10236000F3731A408283828B0A4382837047F0B5ED
:102370000C461546002200210026078C4FF6FF6C04
:1023800007EA0C070784828B018C4FF6FF7707EA78
:1023900004264FF60C773A404FF6FF7707EA03170B
:1023A0002F433A43B64FB8420ED0B64FB8420BD087
:1023B000B0F1804F08D0B44FB84205D0B34FB84207
:1023C00002D0B34FB84206D14FF6FF57394046F41A
:1023D0008077394305E04FF2FF57394044F4807766
:1023E000394382830184F0BD028B4FF2FF331A40E0
:1023F0000283028B4FF6FF7303EA01231A43028321
:102400007047F0B50C461546002200210026078CC7
:102410004FF6EF7C07EA0C070784028B018C4FF61E
:10242000FF7707EA041640F6FF473A404FF6FF777A
:1024300007EA03373A434FF6FF7707EA05273A439F
:102440008F4FB8420ED08F4FB8420BD0B0F1804FB3
:1024500008D08D4FB84205D08C4FB84202D08C4F77
:10246000B84206D14FF6DF77394046F010073943BE
:1024700005E04FF65F77394044F010073943028397
:102480000184F0BD028B4FF6F3731A400283028B76
:102490000A4302837047F0B50C461546002200211E
:1024A000068C4FF6FE773E400684028B018C4FF679
:1024B0000C7632407E1C06EA03162E433243704EE1
:1024C000B0420ED06F4EB0420BD0B0F1804F08D06A
:1024D0006D4EB04205D06D4EB04202D06C4EB0424F
:1024E00006D14FF6FD76314044F00106314305E058
:1024F0004FF6F576314044F0010631430283018402
:10250000F0BD70B505460C465D4885420ED05D486D
:1025100085420BD0B5F1804F08D05B48854205D08D
:102520005A48854202D05A48854200D100E000BF97
:10253000208850B92389A28861882846FFF7ABFF1D
:10254000E1882846FFF79EFF25E0208804280AD16D
:102550002389A28861882846FFF753FFE18828462F
:10256000FFF742FF17E0208808280AD12389A288B4
:1025700061882846FFF7FBFEE1882846FFF7EEFE5C
:1025800009E02389A28861882846FFF7A6FEE18832
:102590002846FFF795FE70BD2DE9F04105460C4633
:1025A00000260127608808B9022600E00026A088DE
:1025B000012801D1022700E001272088A0B9238942
:1025C000A28861882846FFF766FFE1882846FFF762
:1025D00059FF23893A4631462846FFF712FFE18822
:1025E0002846FFF701FF13E02389A2886188284667
:1025F000FFF707FFE1882846FFF7F6FE23893A46F2
:1026000031462846FFF747FFE1882846FFF73AFFA3
:10261000BDE8F0810A884B881A438B881A43CB881F
:102620001A430B891A434B891A438B891A43A0F822
:10263000442070474FF6FF71818000210180C180E6
:102640004180017270470021018041808180C180FA
:10265000018141818181C1817047002101804180D8
:10266000012181800021C18001817047002101800A
:1026700041808180C180018141818181704700005A
:10268000002C0140003401400004004000080040DC
:10269000000C004021B1028842F00102028004E0F7
:1026A00002884FF6FE731A400280704731B1B0F8CD
:1026B000442042F40042A0F8442005E0B0F8442051
:1026C000C2F30E02A0F8442070471AB183890B436D
:1026D000838102E083898B438381704781827047C5
:1026E00041EA0203A0F8483070471AB183890B43CE
:1026F000838102E083898B438381704701894FF690
:10270000F8721140018170470A46002101894FF695
:102710008F73194011430181704730B504460D464F
:1027200029462046FFF7F0FF208940F0070020816E
:1027300030BD2DE9F04104460D4616461F46602D7A
:1027400006D13B46012231462046FFF75AFE05E0FE
:102750003B46012231462046FFF79DFE2946204692
:10276000FFF7D2FF208940F007002081BDE8F0810B
:1027700030B50C4600210189C9B24FF6FF7505EA54
:102780000325154325432943018130BD2DE9F0413F
:1027900005460E4617469846002443463A463146BB
:1027A0002846FFF7E5FF2C894FF6F870044044F007
:1027B00007044FF68F70044044F070042C81BDE88C
:1027C000F081F0B504460D4616461F463B4632469C
:1027D00029462046FFF7CCFF208940F48040208125
:1027E000F0BD0185828270470A46002101884FF6BC
:1027F0008F731940114301807047F0B50C461546A0
:102800001E460021002200230189028B038C4FF613
:10281000F877394021434FF6FC473A4040F2011720
:102820003A434FF6DD773B404FF6FF7707EA06174E
:102830002F433B43018102830384F0BD0A460021FC
:10284000018B4FF68F7319401143018370470A467D
:102850000021018B48F6FF7319404FF6FF7303EA1E
:1028600002231943018370470A460021818B4FF6EA
:102870008F7319401143818370470A460021818B71
:1028800048F6FF7319404FF6FF7303EA022319431A
:102890008183704721B1028842F08002028004E007
:1028A00002884FF67F731A400280704721B18288F8
:1028B00042F00402828004E082884FF6FB731A40E3
:1028C0008280704721B1828842F00802828004E051
:1028D00082884FF6F7731A408280704721B1828850
:1028E00042F00102828004E082884FF6FE731A40B3
:1028F000828070470A460021018B4FF6F77319401A
:102900001143018370470A460021018B4FF2FF7388
:1029100019404FF6FF7303EA0223194301837047FE
:102920000A460021818B4FF6F773194011438183CA
:1029300070470A460021818B4FF2FF7319404FF612
:10294000FF7303EA02231943818370470A4600217B
:10295000018B4FF6FB7319401143018370470A4600
:102960000021018B4FF6FF3319404FF6FF7303EA46
:1029700002231943018370470A460021818B4FF6D9
:10298000FB7319401143818370470A460021818BF4
:102990004FF6FF3319404FF6FF7303EA0223194342
:1029A000818370470A460021018B4FF67F731940DF
:1029B0001143018370470A460021018BC1F30E01C8
:1029C0004FF6FF7303EA02231943018370470A4657
:1029D0000021818B4FF67F7319401143818370472B
:1029E0000A460021818BC1F30E014FF6FF7303EA03
:1029F00002231943818370470A460021018C4FF658
:102A0000FD7319401143018470470A460021018C6F
:102A10004FF6F77319401143018470470A460021AD
:102A2000018C4FF6DF7319404FF6FF7303EA021370
:102A30001943018470470A460021018C4FF67F73C9
:102A400019404FF6FF7303EA0213194301847047DC
:102A50000A460021018C4FF6FF5319404FF6FF73D1
:102A600003EA02231943018470470A460021018CBE
:102A70004FF2FF7319404FF6FF7303EA0223194325
:102A8000018470470A460021018C4DF6FF731940FE
:102A90004FF6FF7303EA023319430184704730B5E0
:102AA000002301248C40A3B2048C9C430484048C36
:102AB00002FA01F5ADB22C43048430BD30B50023D9
:102AC00004248C40A3B2048C9C430484048C02FA3A
:102AD00001F5ADB22C43048430BD70B5034600202F
:102AE00000241846183001258D40ACB21D8CA5433A
:102AF0001D8409B1082909D100EB6100056825F0A2
:102B0000700505600568154305600EE00D1FC5F3EF
:102B10004E052844056825F4E045056005684FF634
:102B2000FF7606EA02263543056070BD21B10288B2
:102B300042F00202028004E002884FF6FD731A4060
:102B40000280704721B1028842F00402028004E052
:102B500002884FF6FB731A400280704721B18288C9
:102B600042F08002828004E082884FF67F731A4030
:102B70008280704702884FF6F7731A4002800288FD
:102B80000A430280704782884FF68F731A40828012
:102B900082880A438280704702894FF6F8731A4090
:102BA000028102890A430281704702894FF67F73CE
:102BB0001A40028102890A4302817047818470476A
:102BC000818570478186704701877047818770478C
:102BD000A0F84010704702884FF6FF431A40028069
:102BE00002880A43028070470146888E704701467A
:102BF000088F70470146888F70470146B1F8400042
:102C000070470146888C70470146088D7047024620
:102C10000020138A0B400BB1012000E00020704718
:102C2000CA430282704730B50246002000230024C8
:102C3000158A05EA0103958905EA010413B10CB16F
:102C4000012000E0002030BDCA430282704700002E
:102C5000002044490860091D0860091D0860091D1D
:102C6000086041483F4914310860704700213D49E0
:102C70008279002A3AD00A46126803689A430B46C2
:102C80001A600A1D126803689A430B1D1A600279C4
:102C900011440A6803681A430A60324A083212680B
:102CA00003689A432F4B08331A601A1D1268036891
:102CB0009A432C4B0C331A604279102A0ED11A1FFA
:102CC000126803681A43274B08331A601A1D1268EA
:102CD00003681A43234B0C331A600DE021494279F3
:102CE00011440A6803681A430A6005E00279114436
:102CF0000A6803689A430A60704700210160017105
:102D00000C21417100218171704716491031096809
:102D10000143144A10321160704701460020114AE5
:102D2000143212680A400AB1012000E00020704706
:102D30000C49143108607047014600200022094BFD
:102D40001B6803EA0102074B14331B680B4013B1E5
:102D50000AB1012000E000207047024914310860E8
:102D60007047000000040140FFFF0F0070477047EC
:102D7000704770477047754600F02CF8AE46050066
:102D80006946534620F00700854618B020B5FEF787
:102D90004DFABDE820404FF000064FF000074FF01D
:102DA00000084FF0000B21F00701AC46ACE8C00969
:102DB000ACE8C009ACE8C009ACE8C0098D46704772
:102DC00010B50446AFF300802046BDE81040FDF783
:102DD000F6B90000004870470C010020FC2D0008E7
:102DE00000000020440000006C010008402E000894
:102DF000440000202C0700008801000800A24A04BB
:102E0000000000000000000001020304060708099A
:102E100000000000000000000000000001000000B1
:102E2000000000000000000000000000000001029F
:102E3000030401020304060708090204060800004F
:0400000508000131BD
:00000001FF
